{
  "_format": "hh-sol-artifact-1",
  "contractName": "AchievementNFT",
  "sourceName": "contracts/Achievment.sol",
  "abi": [
    {
      "inputs": [
        {
          "internalType": "string",
          "name": "_name",
          "type": "string"
        },
        {
          "internalType": "string",
          "name": "_symbol",
          "type": "string"
        },
        {
          "internalType": "string",
          "name": "_baseURL",
          "type": "string"
        }
      ],
      "stateMutability": "nonpayable",
      "type": "constructor"
    },
    {
      "inputs": [
        {
          "internalType": "address",
          "name": "sender",
          "type": "address"
        },
        {
          "internalType": "uint256",
          "name": "tokenId",
          "type": "uint256"
        },
        {
          "internalType": "address",
          "name": "owner",
          "type": "address"
        }
      ],
      "name": "ERC721IncorrectOwner",
      "type": "error"
    },
    {
      "inputs": [
        {
          "internalType": "address",
          "name": "operator",
          "type": "address"
        },
        {
          "internalType": "uint256",
          "name": "tokenId",
          "type": "uint256"
        }
      ],
      "name": "ERC721InsufficientApproval",
      "type": "error"
    },
    {
      "inputs": [
        {
          "internalType": "address",
          "name": "approver",
          "type": "address"
        }
      ],
      "name": "ERC721InvalidApprover",
      "type": "error"
    },
    {
      "inputs": [
        {
          "internalType": "address",
          "name": "operator",
          "type": "address"
        }
      ],
      "name": "ERC721InvalidOperator",
      "type": "error"
    },
    {
      "inputs": [
        {
          "internalType": "address",
          "name": "owner",
          "type": "address"
        }
      ],
      "name": "ERC721InvalidOwner",
      "type": "error"
    },
    {
      "inputs": [
        {
          "internalType": "address",
          "name": "receiver",
          "type": "address"
        }
      ],
      "name": "ERC721InvalidReceiver",
      "type": "error"
    },
    {
      "inputs": [
        {
          "internalType": "address",
          "name": "sender",
          "type": "address"
        }
      ],
      "name": "ERC721InvalidSender",
      "type": "error"
    },
    {
      "inputs": [
        {
          "internalType": "uint256",
          "name": "tokenId",
          "type": "uint256"
        }
      ],
      "name": "ERC721NonexistentToken",
      "type": "error"
    },
    {
      "anonymous": false,
      "inputs": [
        {
          "indexed": true,
          "internalType": "uint256",
          "name": "achievementId",
          "type": "uint256"
        },
        {
          "indexed": true,
          "internalType": "address",
          "name": "player",
          "type": "address"
        }
      ],
      "name": "AchievementMinted",
      "type": "event"
    },
    {
      "anonymous": false,
      "inputs": [
        {
          "indexed": true,
          "internalType": "uint256",
          "name": "achievementId",
          "type": "uint256"
        },
        {
          "indexed": true,
          "internalType": "address",
          "name": "from",
          "type": "address"
        },
        {
          "indexed": true,
          "internalType": "address",
          "name": "to",
          "type": "address"
        }
      ],
      "name": "AchievementTraded",
      "type": "event"
    },
    {
      "anonymous": false,
      "inputs": [
        {
          "indexed": true,
          "internalType": "address",
          "name": "owner",
          "type": "address"
        },
        {
          "indexed": true,
          "internalType": "address",
          "name": "approved",
          "type": "address"
        },
        {
          "indexed": true,
          "internalType": "uint256",
          "name": "tokenId",
          "type": "uint256"
        }
      ],
      "name": "Approval",
      "type": "event"
    },
    {
      "anonymous": false,
      "inputs": [
        {
          "indexed": true,
          "internalType": "address",
          "name": "owner",
          "type": "address"
        },
        {
          "indexed": true,
          "internalType": "address",
          "name": "operator",
          "type": "address"
        },
        {
          "indexed": false,
          "internalType": "bool",
          "name": "approved",
          "type": "bool"
        }
      ],
      "name": "ApprovalForAll",
      "type": "event"
    },
    {
      "anonymous": false,
      "inputs": [
        {
          "indexed": true,
          "internalType": "address",
          "name": "from",
          "type": "address"
        },
        {
          "indexed": true,
          "internalType": "address",
          "name": "to",
          "type": "address"
        },
        {
          "indexed": true,
          "internalType": "uint256",
          "name": "tokenId",
          "type": "uint256"
        }
      ],
      "name": "Transfer",
      "type": "event"
    },
    {
      "inputs": [],
      "name": "achievementIdCounter",
      "outputs": [
        {
          "internalType": "uint256",
          "name": "",
          "type": "uint256"
        }
      ],
      "stateMutability": "view",
      "type": "function"
    },
    {
      "inputs": [
        {
          "internalType": "uint256",
          "name": "",
          "type": "uint256"
        }
      ],
      "name": "achievements",
      "outputs": [
        {
          "internalType": "uint256",
          "name": "id",
          "type": "uint256"
        },
        {
          "internalType": "address",
          "name": "owner",
          "type": "address"
        },
        {
          "internalType": "string",
          "name": "name",
          "type": "string"
        },
        {
          "internalType": "uint256",
          "name": "rarity",
          "type": "uint256"
        },
        {
          "internalType": "bool",
          "name": "isTransferable",
          "type": "bool"
        }
      ],
      "stateMutability": "view",
      "type": "function"
    },
    {
      "inputs": [
        {
          "internalType": "address",
          "name": "to",
          "type": "address"
        },
        {
          "internalType": "uint256",
          "name": "tokenId",
          "type": "uint256"
        }
      ],
      "name": "approve",
      "outputs": [],
      "stateMutability": "nonpayable",
      "type": "function"
    },
    {
      "inputs": [
        {
          "internalType": "address",
          "name": "owner",
          "type": "address"
        }
      ],
      "name": "balanceOf",
      "outputs": [
        {
          "internalType": "uint256",
          "name": "",
          "type": "uint256"
        }
      ],
      "stateMutability": "view",
      "type": "function"
    },
    {
      "inputs": [
        {
          "internalType": "uint256",
          "name": "_achievementId",
          "type": "uint256"
        }
      ],
      "name": "getAchievementMetadata",
      "outputs": [
        {
          "components": [
            {
              "internalType": "uint256",
              "name": "id",
              "type": "uint256"
            },
            {
              "internalType": "address",
              "name": "owner",
              "type": "address"
            },
            {
              "internalType": "string",
              "name": "name",
              "type": "string"
            },
            {
              "internalType": "uint256",
              "name": "rarity",
              "type": "uint256"
            },
            {
              "internalType": "bool",
              "name": "isTransferable",
              "type": "bool"
            }
          ],
          "internalType": "struct AchievementNFT.Achievement",
          "name": "",
          "type": "tuple"
        }
      ],
      "stateMutability": "view",
      "type": "function"
    },
    {
      "inputs": [
        {
          "internalType": "uint256",
          "name": "tokenId",
          "type": "uint256"
        }
      ],
      "name": "getApproved",
      "outputs": [
        {
          "internalType": "address",
          "name": "",
          "type": "address"
        }
      ],
      "stateMutability": "view",
      "type": "function"
    },
    {
      "inputs": [
        {
          "internalType": "address",
          "name": "_player",
          "type": "address"
        }
      ],
      "name": "getPlayerAchievements",
      "outputs": [
        {
          "internalType": "uint256[]",
          "name": "",
          "type": "uint256[]"
        }
      ],
      "stateMutability": "view",
      "type": "function"
    },
    {
      "inputs": [
        {
          "internalType": "address",
          "name": "owner",
          "type": "address"
        },
        {
          "internalType": "address",
          "name": "operator",
          "type": "address"
        }
      ],
      "name": "isApprovedForAll",
      "outputs": [
        {
          "internalType": "bool",
          "name": "",
          "type": "bool"
        }
      ],
      "stateMutability": "view",
      "type": "function"
    },
    {
      "inputs": [
        {
          "internalType": "address",
          "name": "_player",
          "type": "address"
        },
        {
          "internalType": "string",
          "name": "_name",
          "type": "string"
        },
        {
          "internalType": "uint256",
          "name": "_rarity",
          "type": "uint256"
        },
        {
          "internalType": "bool",
          "name": "_transferable",
          "type": "bool"
        }
      ],
      "name": "mintAchievement",
      "outputs": [],
      "stateMutability": "nonpayable",
      "type": "function"
    },
    {
      "inputs": [],
      "name": "name",
      "outputs": [
        {
          "internalType": "string",
          "name": "",
          "type": "string"
        }
      ],
      "stateMutability": "view",
      "type": "function"
    },
    {
      "inputs": [
        {
          "internalType": "uint256",
          "name": "tokenId",
          "type": "uint256"
        }
      ],
      "name": "ownerOf",
      "outputs": [
        {
          "internalType": "address",
          "name": "",
          "type": "address"
        }
      ],
      "stateMutability": "view",
      "type": "function"
    },
    {
      "inputs": [
        {
          "internalType": "address",
          "name": "",
          "type": "address"
        },
        {
          "internalType": "uint256",
          "name": "",
          "type": "uint256"
        }
      ],
      "name": "playerAchievements",
      "outputs": [
        {
          "internalType": "uint256",
          "name": "",
          "type": "uint256"
        }
      ],
      "stateMutability": "view",
      "type": "function"
    },
    {
      "inputs": [
        {
          "internalType": "address",
          "name": "from",
          "type": "address"
        },
        {
          "internalType": "address",
          "name": "to",
          "type": "address"
        },
        {
          "internalType": "uint256",
          "name": "tokenId",
          "type": "uint256"
        }
      ],
      "name": "safeTransferFrom",
      "outputs": [],
      "stateMutability": "nonpayable",
      "type": "function"
    },
    {
      "inputs": [
        {
          "internalType": "address",
          "name": "from",
          "type": "address"
        },
        {
          "internalType": "address",
          "name": "to",
          "type": "address"
        },
        {
          "internalType": "uint256",
          "name": "tokenId",
          "type": "uint256"
        },
        {
          "internalType": "bytes",
          "name": "data",
          "type": "bytes"
        }
      ],
      "name": "safeTransferFrom",
      "outputs": [],
      "stateMutability": "nonpayable",
      "type": "function"
    },
    {
      "inputs": [
        {
          "internalType": "address",
          "name": "operator",
          "type": "address"
        },
        {
          "internalType": "bool",
          "name": "approved",
          "type": "bool"
        }
      ],
      "name": "setApprovalForAll",
      "outputs": [],
      "stateMutability": "nonpayable",
      "type": "function"
    },
    {
      "inputs": [
        {
          "internalType": "bytes4",
          "name": "interfaceId",
          "type": "bytes4"
        }
      ],
      "name": "supportsInterface",
      "outputs": [
        {
          "internalType": "bool",
          "name": "",
          "type": "bool"
        }
      ],
      "stateMutability": "view",
      "type": "function"
    },
    {
      "inputs": [],
      "name": "symbol",
      "outputs": [
        {
          "internalType": "string",
          "name": "",
          "type": "string"
        }
      ],
      "stateMutability": "view",
      "type": "function"
    },
    {
      "inputs": [
        {
          "internalType": "uint256",
          "name": "tokenId",
          "type": "uint256"
        }
      ],
      "name": "tokenURI",
      "outputs": [
        {
          "internalType": "string",
          "name": "",
          "type": "string"
        }
      ],
      "stateMutability": "view",
      "type": "function"
    },
    {
      "inputs": [
        {
          "internalType": "address",
          "name": "from",
          "type": "address"
        },
        {
          "internalType": "address",
          "name": "to",
          "type": "address"
        },
        {
          "internalType": "uint256",
          "name": "tokenId",
          "type": "uint256"
        }
      ],
      "name": "transferFrom",
      "outputs": [],
      "stateMutability": "nonpayable",
      "type": "function"
    },
    {
      "inputs": [
        {
          "internalType": "string",
          "name": "_baseURL",
          "type": "string"
        }
      ],
      "name": "updateBaseURL",
      "outputs": [],
      "stateMutability": "nonpayable",
      "type": "function"
    }
  ],
  "bytecode": "0x60806040523480156200001157600080fd5b50604051620032b5380380620032b5833981810160405281019062000037919062000256565b828281600090816200004a91906200055a565b5080600190816200005c91906200055a565b50505080600790816200007091906200055a565b5033600660006101000a81548173ffffffffffffffffffffffffffffffffffffffff021916908373ffffffffffffffffffffffffffffffffffffffff1602179055506000600a8190555050505062000641565b6000604051905090565b600080fd5b600080fd5b600080fd5b600080fd5b6000601f19601f8301169050919050565b7f4e487b7100000000000000000000000000000000000000000000000000000000600052604160045260246000fd5b6200012c82620000e1565b810181811067ffffffffffffffff821117156200014e576200014d620000f2565b5b80604052505050565b600062000163620000c3565b905062000171828262000121565b919050565b600067ffffffffffffffff821115620001945762000193620000f2565b5b6200019f82620000e1565b9050602081019050919050565b60005b83811015620001cc578082015181840152602081019050620001af565b60008484015250505050565b6000620001ef620001e98462000176565b62000157565b9050828152602081018484840111156200020e576200020d620000dc565b5b6200021b848285620001ac565b509392505050565b600082601f8301126200023b576200023a620000d7565b5b81516200024d848260208601620001d8565b91505092915050565b600080600060608486031215620002725762000271620000cd565b5b600084015167ffffffffffffffff811115620002935762000292620000d2565b5b620002a18682870162000223565b935050602084015167ffffffffffffffff811115620002c557620002c4620000d2565b5b620002d38682870162000223565b925050604084015167ffffffffffffffff811115620002f757620002f6620000d2565b5b620003058682870162000223565b9150509250925092565b600081519050919050565b7f4e487b7100000000000000000000000000000000000000000000000000000000600052602260045260246000fd5b600060028204905060018216806200036257607f821691505b6020821081036200037857620003776200031a565b5b50919050565b60008190508160005260206000209050919050565b60006020601f8301049050919050565b600082821b905092915050565b600060088302620003e27fffffffffffffffffffffffffffffffffffffffffffffffffffffffffffffffff82620003a3565b620003ee8683620003a3565b95508019841693508086168417925050509392505050565b6000819050919050565b6000819050919050565b60006200043b620004356200042f8462000406565b62000410565b62000406565b9050919050565b6000819050919050565b62000457836200041a565b6200046f620004668262000442565b848454620003b0565b825550505050565b600090565b6200048662000477565b620004938184846200044c565b505050565b5b81811015620004bb57620004af6000826200047c565b60018101905062000499565b5050565b601f8211156200050a57620004d4816200037e565b620004df8462000393565b81016020851015620004ef578190505b62000507620004fe8562000393565b83018262000498565b50505b505050565b600082821c905092915050565b60006200052f600019846008026200050f565b1980831691505092915050565b60006200054a83836200051c565b9150826002028217905092915050565b62000565826200030f565b67ffffffffffffffff811115620005815762000580620000f2565b5b6200058d825462000349565b6200059a828285620004bf565b600060209050601f831160018114620005d25760008415620005bd578287015190505b620005c985826200053c565b86555062000639565b601f198416620005e2866200037e565b60005b828110156200060c57848901518255600182019150602085019450602081019050620005e5565b868310156200062c578489015162000628601f8916826200051c565b8355505b6001600288020188555050505b505050505050565b612c6480620006516000396000f3fe608060405234801561001057600080fd5b506004361061012c5760003560e01c806370a08231116100ad578063b88d4fde11610071578063b88d4fde14610357578063c87b56dd14610373578063dac57a67146103a3578063df999dfd146103d3578063e985e9c5146104035761012c565b806370a08231146102a1578063870d6f9d146102d157806395d89b41146102ed5780639ce67bdd1461030b578063a22cb4651461033b5761012c565b806327aed72e116100f457806327aed72e146101e757806342842e0e1461021b578063480ae54d146102375780636352211e1461025557806369e11d0c146102855761012c565b806301ffc9a71461013157806306fdde0314610161578063081812fc1461017f578063095ea7b3146101af57806323b872dd146101cb575b600080fd5b61014b60048036038101906101469190611d94565b610433565b6040516101589190611ddc565b60405180910390f35b610169610515565b6040516101769190611e87565b60405180910390f35b61019960048036038101906101949190611edf565b6105a7565b6040516101a69190611f4d565b60405180910390f35b6101c960048036038101906101c49190611f94565b6105c3565b005b6101e560048036038101906101e09190611fd4565b6105d9565b005b61020160048036038101906101fc9190611edf565b6106db565b604051610212959493929190612036565b60405180910390f35b61023560048036038101906102309190611fd4565b6107c6565b005b61023f6107e6565b60405161024c9190612090565b60405180910390f35b61026f600480360381019061026a9190611edf565b6107ec565b60405161027c9190611f4d565b60405180910390f35b61029f600480360381019061029a919061220c565b6107fe565b005b6102bb60048036038101906102b6919061228f565b6109c0565b6040516102c89190612090565b60405180910390f35b6102eb60048036038101906102e691906122bc565b610a7a565b005b6102f5610b1d565b6040516103029190611e87565b60405180910390f35b6103256004803603810190610320919061228f565b610baf565b60405161033291906123c3565b60405180910390f35b610355600480360381019061035091906123e5565b610c46565b005b610371600480360381019061036c91906124c6565b610c5c565b005b61038d60048036038101906103889190611edf565b610c79565b60405161039a9190611e87565b60405180910390f35b6103bd60048036038101906103b89190611edf565b610ce2565b6040516103ca9190612627565b60405180910390f35b6103ed60048036038101906103e89190611f94565b610e26565b6040516103fa9190612090565b60405180910390f35b61041d60048036038101906104189190612649565b610e57565b60405161042a9190611ddc565b60405180910390f35b60007f80ac58cd000000000000000000000000000000000000000000000000000000007bffffffffffffffffffffffffffffffffffffffffffffffffffffffff1916827bffffffffffffffffffffffffffffffffffffffffffffffffffffffff191614806104fe57507f5b5e139f000000000000000000000000000000000000000000000000000000007bffffffffffffffffffffffffffffffffffffffffffffffffffffffff1916827bffffffffffffffffffffffffffffffffffffffffffffffffffffffff1916145b8061050e575061050d82610eeb565b5b9050919050565b606060008054610524906126b8565b80601f0160208091040260200160405190810160405280929190818152602001828054610550906126b8565b801561059d5780601f106105725761010080835404028352916020019161059d565b820191906000526020600020905b81548152906001019060200180831161058057829003601f168201915b5050505050905090565b60006105b282610f55565b506105bc82610fdd565b9050919050565b6105d582826105d061101a565b611022565b5050565b600073ffffffffffffffffffffffffffffffffffffffff168273ffffffffffffffffffffffffffffffffffffffff160361064b5760006040517f64a0ae920000000000000000000000000000000000000000000000000000000081526004016106429190611f4d565b60405180910390fd5b600061065f838361065a61101a565b611034565b90508373ffffffffffffffffffffffffffffffffffffffff168173ffffffffffffffffffffffffffffffffffffffff16146106d5578382826040517f64283d7b0000000000000000000000000000000000000000000000000000000081526004016106cc939291906126e9565b60405180910390fd5b50505050565b60086020528060005260406000206000915090508060000154908060010160009054906101000a900473ffffffffffffffffffffffffffffffffffffffff169080600201805461072a906126b8565b80601f0160208091040260200160405190810160405280929190818152602001828054610756906126b8565b80156107a35780601f10610778576101008083540402835291602001916107a3565b820191906000526020600020905b81548152906001019060200180831161078657829003601f168201915b5050505050908060030154908060040160009054906101000a900460ff16905085565b6107e183838360405180602001604052806000815250610c5c565b505050565b600a5481565b60006107f782610f55565b9050919050565b6000600a5490506040518060a001604052808281526020013373ffffffffffffffffffffffffffffffffffffffff168152602001858152602001848152602001831515815250600860008381526020019081526020016000206000820151816000015560208201518160010160006101000a81548173ffffffffffffffffffffffffffffffffffffffff021916908373ffffffffffffffffffffffffffffffffffffffff16021790555060408201518160020190816108bd91906128cc565b506060820151816003015560808201518160040160006101000a81548160ff021916908315150217905550905050600960008673ffffffffffffffffffffffffffffffffffffffff1673ffffffffffffffffffffffffffffffffffffffff16815260200190815260200160002081908060018154018082558091505060019003906000526020600020016000909190919091505561095b338261124e565b8473ffffffffffffffffffffffffffffffffffffffff16817f8bfa160d9294fb67a8974a962ad20c50430506424d2d68155f40f96c848ab9c560405160405180910390a36001600a60008282546109b291906129cd565b925050819055505050505050565b60008073ffffffffffffffffffffffffffffffffffffffff168273ffffffffffffffffffffffffffffffffffffffff1603610a335760006040517f89c62b64000000000000000000000000000000000000000000000000000000008152600401610a2a9190611f4d565b60405180910390fd5b600360008373ffffffffffffffffffffffffffffffffffffffff1673ffffffffffffffffffffffffffffffffffffffff168152602001908152602001600020549050919050565b600660009054906101000a900473ffffffffffffffffffffffffffffffffffffffff1673ffffffffffffffffffffffffffffffffffffffff163373ffffffffffffffffffffffffffffffffffffffff1614610b0a576040517f08c379a0000000000000000000000000000000000000000000000000000000008152600401610b0190612a73565b60405180910390fd5b8060079081610b1991906128cc565b5050565b606060018054610b2c906126b8565b80601f0160208091040260200160405190810160405280929190818152602001828054610b58906126b8565b8015610ba55780601f10610b7a57610100808354040283529160200191610ba5565b820191906000526020600020905b815481529060010190602001808311610b8857829003601f168201915b5050505050905090565b6060600960008373ffffffffffffffffffffffffffffffffffffffff1673ffffffffffffffffffffffffffffffffffffffff168152602001908152602001600020805480602002602001604051908101604052809291908181526020018280548015610c3a57602002820191906000526020600020905b815481526020019060010190808311610c26575b50505050509050919050565b610c58610c5161101a565b838361126c565b5050565b610c678484846105d9565b610c73848484846113db565b50505050565b6060610c8482610f55565b506000610c8f611592565b90506000815111610caf5760405180602001604052806000815250610cda565b80610cb984611624565b604051602001610cca929190612acf565b6040516020818303038152906040525b915050919050565b610cea611ce1565b600860008381526020019081526020016000206040518060a0016040529081600082015481526020016001820160009054906101000a900473ffffffffffffffffffffffffffffffffffffffff1673ffffffffffffffffffffffffffffffffffffffff1673ffffffffffffffffffffffffffffffffffffffff168152602001600282018054610d78906126b8565b80601f0160208091040260200160405190810160405280929190818152602001828054610da4906126b8565b8015610df15780601f10610dc657610100808354040283529160200191610df1565b820191906000526020600020905b815481529060010190602001808311610dd457829003601f168201915b50505050508152602001600382015481526020016004820160009054906101000a900460ff1615151515815250509050919050565b60096020528160005260406000208181548110610e4257600080fd5b90600052602060002001600091509150505481565b6000600560008473ffffffffffffffffffffffffffffffffffffffff1673ffffffffffffffffffffffffffffffffffffffff16815260200190815260200160002060008373ffffffffffffffffffffffffffffffffffffffff1673ffffffffffffffffffffffffffffffffffffffff16815260200190815260200160002060009054906101000a900460ff16905092915050565b60007f01ffc9a7000000000000000000000000000000000000000000000000000000007bffffffffffffffffffffffffffffffffffffffffffffffffffffffff1916827bffffffffffffffffffffffffffffffffffffffffffffffffffffffff1916149050919050565b600080610f61836116f2565b9050600073ffffffffffffffffffffffffffffffffffffffff168173ffffffffffffffffffffffffffffffffffffffff1603610fd457826040517f7e273289000000000000000000000000000000000000000000000000000000008152600401610fcb9190612090565b60405180910390fd5b80915050919050565b60006004600083815260200190815260200160002060009054906101000a900473ffffffffffffffffffffffffffffffffffffffff169050919050565b600033905090565b61102f838383600161172f565b505050565b600080611040846116f2565b9050600073ffffffffffffffffffffffffffffffffffffffff168373ffffffffffffffffffffffffffffffffffffffff1614611082576110818184866118f4565b5b600073ffffffffffffffffffffffffffffffffffffffff168173ffffffffffffffffffffffffffffffffffffffff1614611113576110c460008560008061172f565b6001600360008373ffffffffffffffffffffffffffffffffffffffff1673ffffffffffffffffffffffffffffffffffffffff168152602001908152602001600020600082825403925050819055505b600073ffffffffffffffffffffffffffffffffffffffff168573ffffffffffffffffffffffffffffffffffffffff1614611196576001600360008773ffffffffffffffffffffffffffffffffffffffff1673ffffffffffffffffffffffffffffffffffffffff168152602001908152602001600020600082825401925050819055505b846002600086815260200190815260200160002060006101000a81548173ffffffffffffffffffffffffffffffffffffffff021916908373ffffffffffffffffffffffffffffffffffffffff160217905550838573ffffffffffffffffffffffffffffffffffffffff168273ffffffffffffffffffffffffffffffffffffffff167fddf252ad1be2c89b69c2b068fc378daa952ba7f163c4a11628f55a4df523b3ef60405160405180910390a4809150509392505050565b6112688282604051806020016040528060008152506119b8565b5050565b600073ffffffffffffffffffffffffffffffffffffffff168273ffffffffffffffffffffffffffffffffffffffff16036112dd57816040517f5b08ba180000000000000000000000000000000000000000000000000000000081526004016112d49190611f4d565b60405180910390fd5b80600560008573ffffffffffffffffffffffffffffffffffffffff1673ffffffffffffffffffffffffffffffffffffffff16815260200190815260200160002060008473ffffffffffffffffffffffffffffffffffffffff1673ffffffffffffffffffffffffffffffffffffffff16815260200190815260200160002060006101000a81548160ff0219169083151502179055508173ffffffffffffffffffffffffffffffffffffffff168373ffffffffffffffffffffffffffffffffffffffff167f17307eab39ab6107e8899845ad3d59bd9653f200f220920489ca2b5937696c31836040516113ce9190611ddc565b60405180910390a3505050565b60008373ffffffffffffffffffffffffffffffffffffffff163b111561158c578273ffffffffffffffffffffffffffffffffffffffff1663150b7a0261141f61101a565b8685856040518563ffffffff1660e01b81526004016114419493929190612b48565b6020604051808303816000875af192505050801561147d57506040513d601f19601f8201168201806040525081019061147a9190612ba9565b60015b611501573d80600081146114ad576040519150601f19603f3d011682016040523d82523d6000602084013e6114b2565b606091505b5060008151036114f957836040517f64a0ae920000000000000000000000000000000000000000000000000000000081526004016114f09190611f4d565b60405180910390fd5b805181602001fd5b63150b7a0260e01b7bffffffffffffffffffffffffffffffffffffffffffffffffffffffff1916817bffffffffffffffffffffffffffffffffffffffffffffffffffffffff19161461158a57836040517f64a0ae920000000000000000000000000000000000000000000000000000000081526004016115819190611f4d565b60405180910390fd5b505b50505050565b6060600780546115a1906126b8565b80601f01602080910402602001604051908101604052809291908181526020018280546115cd906126b8565b801561161a5780601f106115ef5761010080835404028352916020019161161a565b820191906000526020600020905b8154815290600101906020018083116115fd57829003601f168201915b5050505050905090565b606060006001611633846119d4565b01905060008167ffffffffffffffff811115611652576116516120b5565b5b6040519080825280601f01601f1916602001820160405280156116845781602001600182028036833780820191505090505b509050600082602001820190505b6001156116e7578080600190039150507f3031323334353637383961626364656600000000000000000000000000000000600a86061a8153600a85816116db576116da612bd6565b5b04945060008503611692575b819350505050919050565b60006002600083815260200190815260200160002060009054906101000a900473ffffffffffffffffffffffffffffffffffffffff169050919050565b80806117685750600073ffffffffffffffffffffffffffffffffffffffff168273ffffffffffffffffffffffffffffffffffffffff1614155b1561189c57600061177884610f55565b9050600073ffffffffffffffffffffffffffffffffffffffff168373ffffffffffffffffffffffffffffffffffffffff16141580156117e357508273ffffffffffffffffffffffffffffffffffffffff168173ffffffffffffffffffffffffffffffffffffffff1614155b80156117f657506117f48184610e57565b155b1561183857826040517fa9fbf51f00000000000000000000000000000000000000000000000000000000815260040161182f9190611f4d565b60405180910390fd5b811561189a57838573ffffffffffffffffffffffffffffffffffffffff168273ffffffffffffffffffffffffffffffffffffffff167f8c5be1e5ebec7d5bd14f71427d1e84f3dd0314c0f7b2291e5b200ac8c7c3b92560405160405180910390a45b505b836004600085815260200190815260200160002060006101000a81548173ffffffffffffffffffffffffffffffffffffffff021916908373ffffffffffffffffffffffffffffffffffffffff16021790555050505050565b6118ff838383611b27565b6119b357600073ffffffffffffffffffffffffffffffffffffffff168373ffffffffffffffffffffffffffffffffffffffff160361197457806040517f7e27328900000000000000000000000000000000000000000000000000000000815260040161196b9190612090565b60405180910390fd5b81816040517f177e802f0000000000000000000000000000000000000000000000000000000081526004016119aa929190612c05565b60405180910390fd5b505050565b6119c28383611be8565b6119cf60008484846113db565b505050565b600080600090507a184f03e93ff9f4daa797ed6e38ed64bf6a1f0100000000000000008310611a32577a184f03e93ff9f4daa797ed6e38ed64bf6a1f0100000000000000008381611a2857611a27612bd6565b5b0492506040810190505b6d04ee2d6d415b85acef81000000008310611a6f576d04ee2d6d415b85acef81000000008381611a6557611a64612bd6565b5b0492506020810190505b662386f26fc100008310611a9e57662386f26fc100008381611a9457611a93612bd6565b5b0492506010810190505b6305f5e1008310611ac7576305f5e1008381611abd57611abc612bd6565b5b0492506008810190505b6127108310611aec576127108381611ae257611ae1612bd6565b5b0492506004810190505b60648310611b0f5760648381611b0557611b04612bd6565b5b0492506002810190505b600a8310611b1e576001810190505b80915050919050565b60008073ffffffffffffffffffffffffffffffffffffffff168373ffffffffffffffffffffffffffffffffffffffff1614158015611bdf57508273ffffffffffffffffffffffffffffffffffffffff168473ffffffffffffffffffffffffffffffffffffffff161480611ba05750611b9f8484610e57565b5b80611bde57508273ffffffffffffffffffffffffffffffffffffffff16611bc683610fdd565b73ffffffffffffffffffffffffffffffffffffffff16145b5b90509392505050565b600073ffffffffffffffffffffffffffffffffffffffff168273ffffffffffffffffffffffffffffffffffffffff1603611c5a5760006040517f64a0ae92000000000000000000000000000000000000000000000000000000008152600401611c519190611f4d565b60405180910390fd5b6000611c6883836000611034565b9050600073ffffffffffffffffffffffffffffffffffffffff168173ffffffffffffffffffffffffffffffffffffffff1614611cdc5760006040517f73c6ac6e000000000000000000000000000000000000000000000000000000008152600401611cd39190611f4d565b60405180910390fd5b505050565b6040518060a0016040528060008152602001600073ffffffffffffffffffffffffffffffffffffffff16815260200160608152602001600081526020016000151581525090565b6000604051905090565b600080fd5b600080fd5b60007fffffffff0000000000000000000000000000000000000000000000000000000082169050919050565b611d7181611d3c565b8114611d7c57600080fd5b50565b600081359050611d8e81611d68565b92915050565b600060208284031215611daa57611da9611d32565b5b6000611db884828501611d7f565b91505092915050565b60008115159050919050565b611dd681611dc1565b82525050565b6000602082019050611df16000830184611dcd565b92915050565b600081519050919050565b600082825260208201905092915050565b60005b83811015611e31578082015181840152602081019050611e16565b60008484015250505050565b6000601f19601f8301169050919050565b6000611e5982611df7565b611e638185611e02565b9350611e73818560208601611e13565b611e7c81611e3d565b840191505092915050565b60006020820190508181036000830152611ea18184611e4e565b905092915050565b6000819050919050565b611ebc81611ea9565b8114611ec757600080fd5b50565b600081359050611ed981611eb3565b92915050565b600060208284031215611ef557611ef4611d32565b5b6000611f0384828501611eca565b91505092915050565b600073ffffffffffffffffffffffffffffffffffffffff82169050919050565b6000611f3782611f0c565b9050919050565b611f4781611f2c565b82525050565b6000602082019050611f626000830184611f3e565b92915050565b611f7181611f2c565b8114611f7c57600080fd5b50565b600081359050611f8e81611f68565b92915050565b60008060408385031215611fab57611faa611d32565b5b6000611fb985828601611f7f565b9250506020611fca85828601611eca565b9150509250929050565b600080600060608486031215611fed57611fec611d32565b5b6000611ffb86828701611f7f565b935050602061200c86828701611f7f565b925050604061201d86828701611eca565b9150509250925092565b61203081611ea9565b82525050565b600060a08201905061204b6000830188612027565b6120586020830187611f3e565b818103604083015261206a8186611e4e565b90506120796060830185612027565b6120866080830184611dcd565b9695505050505050565b60006020820190506120a56000830184612027565b92915050565b600080fd5b600080fd5b7f4e487b7100000000000000000000000000000000000000000000000000000000600052604160045260246000fd5b6120ed82611e3d565b810181811067ffffffffffffffff8211171561210c5761210b6120b5565b5b80604052505050565b600061211f611d28565b905061212b82826120e4565b919050565b600067ffffffffffffffff82111561214b5761214a6120b5565b5b61215482611e3d565b9050602081019050919050565b82818337600083830152505050565b600061218361217e84612130565b612115565b90508281526020810184848401111561219f5761219e6120b0565b5b6121aa848285612161565b509392505050565b600082601f8301126121c7576121c66120ab565b5b81356121d7848260208601612170565b91505092915050565b6121e981611dc1565b81146121f457600080fd5b50565b600081359050612206816121e0565b92915050565b6000806000806080858703121561222657612225611d32565b5b600061223487828801611f7f565b945050602085013567ffffffffffffffff81111561225557612254611d37565b5b612261878288016121b2565b935050604061227287828801611eca565b9250506060612283878288016121f7565b91505092959194509250565b6000602082840312156122a5576122a4611d32565b5b60006122b384828501611f7f565b91505092915050565b6000602082840312156122d2576122d1611d32565b5b600082013567ffffffffffffffff8111156122f0576122ef611d37565b5b6122fc848285016121b2565b91505092915050565b600081519050919050565b600082825260208201905092915050565b6000819050602082019050919050565b61233a81611ea9565b82525050565b600061234c8383612331565b60208301905092915050565b6000602082019050919050565b600061237082612305565b61237a8185612310565b935061238583612321565b8060005b838110156123b657815161239d8882612340565b97506123a883612358565b925050600181019050612389565b5085935050505092915050565b600060208201905081810360008301526123dd8184612365565b905092915050565b600080604083850312156123fc576123fb611d32565b5b600061240a85828601611f7f565b925050602061241b858286016121f7565b9150509250929050565b600067ffffffffffffffff8211156124405761243f6120b5565b5b61244982611e3d565b9050602081019050919050565b600061246961246484612425565b612115565b905082815260208101848484011115612485576124846120b0565b5b612490848285612161565b509392505050565b600082601f8301126124ad576124ac6120ab565b5b81356124bd848260208601612456565b91505092915050565b600080600080608085870312156124e0576124df611d32565b5b60006124ee87828801611f7f565b94505060206124ff87828801611f7f565b935050604061251087828801611eca565b925050606085013567ffffffffffffffff81111561253157612530611d37565b5b61253d87828801612498565b91505092959194509250565b61255281611f2c565b82525050565b600082825260208201905092915050565b600061257482611df7565b61257e8185612558565b935061258e818560208601611e13565b61259781611e3d565b840191505092915050565b6125ab81611dc1565b82525050565b600060a0830160008301516125c96000860182612331565b5060208301516125dc6020860182612549565b50604083015184820360408601526125f48282612569565b91505060608301516126096060860182612331565b50608083015161261c60808601826125a2565b508091505092915050565b6000602082019050818103600083015261264181846125b1565b905092915050565b600080604083850312156126605761265f611d32565b5b600061266e85828601611f7f565b925050602061267f85828601611f7f565b9150509250929050565b7f4e487b7100000000000000000000000000000000000000000000000000000000600052602260045260246000fd5b600060028204905060018216806126d057607f821691505b6020821081036126e3576126e2612689565b5b50919050565b60006060820190506126fe6000830186611f3e565b61270b6020830185612027565b6127186040830184611f3e565b949350505050565b60008190508160005260206000209050919050565b60006020601f8301049050919050565b600082821b905092915050565b6000600883026127827fffffffffffffffffffffffffffffffffffffffffffffffffffffffffffffffff82612745565b61278c8683612745565b95508019841693508086168417925050509392505050565b6000819050919050565b60006127c96127c46127bf84611ea9565b6127a4565b611ea9565b9050919050565b6000819050919050565b6127e3836127ae565b6127f76127ef826127d0565b848454612752565b825550505050565b600090565b61280c6127ff565b6128178184846127da565b505050565b5b8181101561283b57612830600082612804565b60018101905061281d565b5050565b601f8211156128805761285181612720565b61285a84612735565b81016020851015612869578190505b61287d61287585612735565b83018261281c565b50505b505050565b600082821c905092915050565b60006128a360001984600802612885565b1980831691505092915050565b60006128bc8383612892565b9150826002028217905092915050565b6128d582611df7565b67ffffffffffffffff8111156128ee576128ed6120b5565b5b6128f882546126b8565b61290382828561283f565b600060209050601f8311600181146129365760008415612924578287015190505b61292e85826128b0565b865550612996565b601f19841661294486612720565b60005b8281101561296c57848901518255600182019150602085019450602081019050612947565b868310156129895784890151612985601f891682612892565b8355505b6001600288020188555050505b505050505050565b7f4e487b7100000000000000000000000000000000000000000000000000000000600052601160045260246000fd5b60006129d882611ea9565b91506129e383611ea9565b92508282019050808211156129fb576129fa61299e565b5b92915050565b7f4f6e6c79207468652043454f20697320616c6c6f77656420746f206368616e6760008201527f6520746865206261736555524900000000000000000000000000000000000000602082015250565b6000612a5d602d83611e02565b9150612a6882612a01565b604082019050919050565b60006020820190508181036000830152612a8c81612a50565b9050919050565b600081905092915050565b6000612aa982611df7565b612ab38185612a93565b9350612ac3818560208601611e13565b80840191505092915050565b6000612adb8285612a9e565b9150612ae78284612a9e565b91508190509392505050565b600081519050919050565b600082825260208201905092915050565b6000612b1a82612af3565b612b248185612afe565b9350612b34818560208601611e13565b612b3d81611e3d565b840191505092915050565b6000608082019050612b5d6000830187611f3e565b612b6a6020830186611f3e565b612b776040830185612027565b8181036060830152612b898184612b0f565b905095945050505050565b600081519050612ba381611d68565b92915050565b600060208284031215612bbf57612bbe611d32565b5b6000612bcd84828501612b94565b91505092915050565b7f4e487b7100000000000000000000000000000000000000000000000000000000600052601260045260246000fd5b6000604082019050612c1a6000830185611f3e565b612c276020830184612027565b939250505056fea264697066735822122079c69b6f525ce3c3ec12941ad8cc83595033aac037e882825722f9c1f0ad594364736f6c63430008140033",
  "linkReferences": {},
  "deployedLinkReferences": {}
}