{
  "_format": "hh-sol-artifact-1",
  "contractName": "ClaimToken",
  "sourceName": "contracts/ClaimToken.sol",
  "abi": [
    {
      "inputs": [
        {
          "internalType": "address",
          "name": "_tokenToClaim",
          "type": "address"
        }
      ],
      "stateMutability": "nonpayable",
      "type": "constructor"
    },
    {
      "inputs": [],
      "name": "admin",
      "outputs": [
        {
          "internalType": "address",
          "name": "",
          "type": "address"
        }
      ],
      "stateMutability": "view",
      "type": "function"
    },
    {
      "inputs": [
        {
          "internalType": "uint256",
          "name": "amount",
          "type": "uint256"
        }
      ],
      "name": "claim",
      "outputs": [],
      "stateMutability": "nonpayable",
      "type": "function"
    },
    {
      "inputs": [
        {
          "internalType": "address",
          "name": "",
          "type": "address"
        }
      ],
      "name": "claimedTokens",
      "outputs": [
        {
          "internalType": "uint256",
          "name": "",
          "type": "uint256"
        }
      ],
      "stateMutability": "view",
      "type": "function"
    },
    {
      "inputs": [],
      "name": "tokenToClaim",
      "outputs": [
        {
          "internalType": "contract ERC20",
          "name": "",
          "type": "address"
        }
      ],
      "stateMutability": "view",
      "type": "function"
    }
  ],
  "bytecode": "0x608060405234801561001057600080fd5b506040516107b03803806107b08339818101604052810190610032919061011c565b336000806101000a81548173ffffffffffffffffffffffffffffffffffffffff021916908373ffffffffffffffffffffffffffffffffffffffff16021790555080600160006101000a81548173ffffffffffffffffffffffffffffffffffffffff021916908373ffffffffffffffffffffffffffffffffffffffff16021790555050610149565b600080fd5b600073ffffffffffffffffffffffffffffffffffffffff82169050919050565b60006100e9826100be565b9050919050565b6100f9816100de565b811461010457600080fd5b50565b600081519050610116816100f0565b92915050565b600060208284031215610132576101316100b9565b5b600061014084828501610107565b91505092915050565b610658806101586000396000f3fe608060405234801561001057600080fd5b506004361061004c5760003560e01c8063379607f5146100515780634875590a1461006d578063a960c65f1461008b578063f851a440146100bb575b600080fd5b61006b60048036038101906100669190610320565b6100d9565b005b610075610283565b60405161008291906103cc565b60405180910390f35b6100a560048036038101906100a09190610425565b6102a9565b6040516100b29190610461565b60405180910390f35b6100c36102c1565b6040516100d0919061048b565b60405180910390f35b60008054906101000a900473ffffffffffffffffffffffffffffffffffffffff1673ffffffffffffffffffffffffffffffffffffffff163373ffffffffffffffffffffffffffffffffffffffff1603610167576040517f08c379a000000000000000000000000000000000000000000000000000000000815260040161015e90610503565b60405180910390fd5b600160009054906101000a900473ffffffffffffffffffffffffffffffffffffffff1673ffffffffffffffffffffffffffffffffffffffff166323b872dd60008054906101000a900473ffffffffffffffffffffffffffffffffffffffff1633846040518463ffffffff1660e01b81526004016101e693929190610523565b6020604051808303816000875af1158015610205573d6000803e3d6000fd5b505050506040513d601f19601f820116820180604052508101906102299190610592565b5080600260003373ffffffffffffffffffffffffffffffffffffffff1673ffffffffffffffffffffffffffffffffffffffff168152602001908152602001600020600082825461027991906105ee565b9250508190555050565b600160009054906101000a900473ffffffffffffffffffffffffffffffffffffffff1681565b60026020528060005260406000206000915090505481565b60008054906101000a900473ffffffffffffffffffffffffffffffffffffffff1681565b600080fd5b6000819050919050565b6102fd816102ea565b811461030857600080fd5b50565b60008135905061031a816102f4565b92915050565b600060208284031215610336576103356102e5565b5b60006103448482850161030b565b91505092915050565b600073ffffffffffffffffffffffffffffffffffffffff82169050919050565b6000819050919050565b600061039261038d6103888461034d565b61036d565b61034d565b9050919050565b60006103a482610377565b9050919050565b60006103b682610399565b9050919050565b6103c6816103ab565b82525050565b60006020820190506103e160008301846103bd565b92915050565b60006103f28261034d565b9050919050565b610402816103e7565b811461040d57600080fd5b50565b60008135905061041f816103f9565b92915050565b60006020828403121561043b5761043a6102e5565b5b600061044984828501610410565b91505092915050565b61045b816102ea565b82525050565b60006020820190506104766000830184610452565b92915050565b610485816103e7565b82525050565b60006020820190506104a0600083018461047c565b92915050565b600082825260208201905092915050565b7f41646d696e2063616e6e6f7420636c61696d20746f6b656e7300000000000000600082015250565b60006104ed6019836104a6565b91506104f8826104b7565b602082019050919050565b6000602082019050818103600083015261051c816104e0565b9050919050565b6000606082019050610538600083018661047c565b610545602083018561047c565b6105526040830184610452565b949350505050565b60008115159050919050565b61056f8161055a565b811461057a57600080fd5b50565b60008151905061058c81610566565b92915050565b6000602082840312156105a8576105a76102e5565b5b60006105b68482850161057d565b91505092915050565b7f4e487b7100000000000000000000000000000000000000000000000000000000600052601160045260246000fd5b60006105f9826102ea565b9150610604836102ea565b925082820190508082111561061c5761061b6105bf565b5b9291505056fea264697066735822122017ac26c19e0a7213343a2ab49f1ca8f08094796c9011ccde31c505f4d14b501e64736f6c63430008140033",
  "linkReferences": {},
  "deployedLinkReferences": {}
}